:020000040800F2
:100000000000052031060008092300080B23000822
:100010000D2300080F230008112300080000000032
:100020000000000000000000000000005174000803
:100030001323000800000000E1740008676D000849
:100040008106000881060008810600088106000874
:100050008106000881060008810600088106000864
:100060008106000881060008810600088106000854
:100070008106000881060008810600088106000844
:100080008106000881060008810600088106000834
:100090008106000881060008810600088106000824
:1000A0008106000881060008810600088106000814
:1000B0008106000881060008810600088106000804
:1000C00081060008810600088106000881060008F4
:1000D00081060008810600088106000881060008E4
:1000E00081060008810600088106000881060008D4
:1000F00081060008810600088106000881060008C4
:1001000081060008810600088106000881060008B3
:1001100081060008810600081523000881060008F2
:100120008106000881060008810600088106000893
:100130008106000881060008810600088106000883
:100140008106000881060008810600088106000873
:100150008106000881060008810600088106000863
:100160008106000881060008810600088106000853
:1001700081060008810600088106000800000000D2
:100180008106000881060008810600088106000833
:100190008106000881060008810600088106000823
:1001A00021230008810600082D230008810600088D
:0401B00039230008E7
:1001C00010B5054C237833B9044B13B10448AFF391
:1001D00000800123237010BD4003002000000000B8
:1001E000AC3A020808B5034B1BB103490348AFF30F
:1001F000008008BD0000000044030020AC3A020863
:1002000001F0FF01102A2BDB10F0070F08D010F8C7
:10021000013B013A8B422DD010F0070F42B3F6D1CB
:10022000F0B441EA012141EA014122F007047FF0E4
:1002300000070023F0E80256083C85EA010586EA3B
:10024000010685FA47F5A3FA87F586FA47F6A5FA77
:1002500087F68EB9EED1F0BC01F0FF0102F0070283
:1002600032B110F8013B013A83EA010313B1F8D12E
:100270000020704701387047002D06BF354603380F
:10028000073815F0010F07D1013015F4807F02BF48
:10029000013015F4C03F0130F0BC0138704700BF99
:1002A0007BB972B90029BEBF00204FF0004106E0C3
:1002B00008BF00281CBF6FF000414FF0FF3000F076
:1002C000B5B9ADF1080C6DE904CE002909DB002BAE
:1002D0001ADB00F04DF8DDF804E0DDE9022304B09C
:1002E0007047404261EB4101002B1BDB00F040F8FE
:1002F000DDF804E0DDE9022304B0404261EB410196
:10030000524263EB43037047524263EB430300F0F6
:100310002FF8DDF804E0DDE9022304B0404261EB90
:1003200041017047524263EB430300F021F8DDF8CE
:1003300004E0DDE9022304B0524263EB430370475B
:1003400053B94AB9002908BF00281CBF4FF0FF313C
:100350004FF0FF3000F06AB9ADF1080C6DE904CE42
:1003600000F006F8DDF804E0DDE9022304B0704790
:100370002DE9F047089D0C46002B4ED194468C4544
:100380008646B2FA82F262D94AB1C2F120039140A4
:1003900020FA03F30CFA02FC194300FA02FE4FEABA
:1003A0001C471FFA8CF6B1FBF7F44FEA1E4307FB1C
:1003B000141143EA014304FB06F199420AD91CEBEC
:1003C000030304F1FF3080F01281994240F20F8163
:1003D000023C6344591A1FFA8EF3B1FBF7F007FB96
:1003E000101143EA014300FB06F69E420AD91CEBBA
:1003F000030300F1FF3180F0FC809E4240F2F9805F
:10040000634402389B1B40EA044000211DB1D340E5
:100410000022C5E90032BDE8F0878B4205D90DB155
:10042000C5E9000100210846F5E7B3FA83F1002988
:1004300046D1A34202D39042C0F0F080861A64EB0A
:1004400003030120002DE6D0C5E90063E3E7002A9D
:1004500040F09080A1EB0C044FEA1C481FFA8CF787
:100460000121B4FBF8F64FEA1E4308FB164443EAA9
:10047000044307FB06F0984208D91CEB030306F17E
:10048000FF3402D2984200F2CD8026461C1A1FFA91
:100490008EF3B4FBF8F008FB104443EA044300FB7E
:1004A00007F79F4208D91CEB030300F1FF3402D287
:1004B0009F4200F2B0802046DB1B40EA0640A5E7E1
:1004C000C1F120068B4022FA06F71F4320FA06FCF2
:1004D00004FA01F343EA0C03F44000FA01F8380C83
:1004E0004FEA1349B4FBF0FE1FFA87FC00FB1E44E1
:1004F00049EA04440EFB0CF9A14502FA01F20AD9BB
:100500003C190EF1FF3A80F08480A14540F28180D1
:10051000AEF1020E3C44A4EB09041FFA83F9B4FBCC
:10052000F0F300FB134449EA044403FB0CFCA4452C
:1005300007D93C1903F1FF3067D2A44565D9023BC6
:100540003C4443EA0E40A0FB0293A4EB0C049C4203
:10055000CE469C4651D34ED055B1B8EB0E0364EB5A
:100560000C0404FA06F6CB401E43CC40C5E90064F7
:10057000002150E7C2F1200320FA03F10CFA02FC3B
:1005800024FA03F394400C434FEA1C4800FA02FE9D
:100590001FFA8CF7B3FBF8F008FB1031230C43EA89
:1005A000014300FB07F1994208D91CEB030300F15A
:1005B000FF362CD299422AD9023863445B1AA4B27E
:1005C000B3FBF8F108FB113344EA034401FB07F3E2
:1005D000A34208D91CEB040401F1FF3613D2A34255
:1005E00011D902396444E41A41EA004139E704466A
:1005F000F0E6084606E7C845AED2B9EB020E63EB5B
:10060000070C0138A8E73146EDE7034699E7304685
:10061000D4E7D6467FE7634402384DE706462346D3
:1006200008460FE7023E634430E700BF704700BF53
:10063000DFF834D0002103E00C4B5B584350043109
:100640000B480C4B42189A42F6D30B4A02E00023A7
:1006500042F8043B094B9A42F9D303F059FB22F0CC
:10066000B5FC01F021F9704700000520005D02088B
:1006700000000020400100204003002018B80020A6
:10068000FEE7704708B500F001FFBDE8084000F044
:1006900085BE00F0FDBE0021084602F09FBE00208E
:1006A00002F0D6BE40687047416070474FF0E022CC
:1006B000D2F8FC3D43F08073C2F8FC3DA2F55042F5
:1006C000136843F0010313607047521A02EB5302A0
:1006D000B2FBF3F070470000014B5868704700BF51
:1006E000001000E0704710B50C21044621F035FAE7
:1006F000204610BD036810B51B69044631B1984708
:10070000A26863689B1A0344636010BD9847A060A9
:10071000FBE770477047000008B5FFF7BCFF024BCE
:1007200000221A6008BD00BF5C03002070B50D46B2
:10073000FFF7B5FF0B4A937856781178D370C4B29F
:1007400013F001009670517014700AD016F0010079
:1007500007D011F0010004D0E3075ABF0120287030
:10076000002070BD5C03002010B50421044621F078
:10077000F4F9204610BD70477FB50B4B1C780E4630
:1007800015461CB90024204604B070BD01A803F032
:100790004BFA9DF80430002BF4D0BDF806303360DE
:1007A000BDF80A302B60EEE76003002010B504218D
:1007B000044621F0D2F9204610BD000008B54FF4E0
:1007C000F0714FF4487003F0F7F9074B10B90122AC
:1007D0001A7008BD1B78002BFBD1044B044A054856
:1007E000272122F043F900BF60030020483B0208A4
:1007F0005B3B0208853B0208032823D8DFE800F0B2
:10080000020B1219104B1A68B2FA82F25209042133
:100810000E4804F08FBA0C4B5A68B2FA82F25209B1
:100820004021F5E7084B9A68B2FA82F25209022198
:10083000EEE7054B0648DA68B2FA82F252094FF445
:100840008051E6E7704700BF6403002000000240CB
:1008500000180240032823D8DFE800F0020B121929
:10086000104B1A68003A18BF012204210E4804F008
:1008700061BA0C4B5A68003A18BF01224021F5E7D3
:10088000084B9A68003A18BF01220221EEE7054B97
:100890000648DA68003A18BF01224FF48051E6E7B3
:1008A000704700BF640300200000024000180240AF
:1008B00003280FD8DFE800F00206080A04210648E2
:1008C00004F03DBA4021FAE70221F8E703484FF46B
:1008D0008051F5E7704700BF000002400018024059
:1008E00008B5032813D8DFE800F0020A0C0E042133
:1008F000084804F019FA431E5842584108BD4021E7
:10090000F6E70221F4E704484FF48051F1E70020B4
:10091000F1E700BF000002400018024070B5084D2A
:1009200000240126E0B2FFF7DBFF18B12B68012B92
:1009300018BF2E600134052C05F10405F2D170BDFD
:1009400064030020012380F8781080F87930704724
:1009500000207047034B4164003918BF0121197012
:10096000704700BFD7AA002000207047836B0BB1EF
:100970000846184770474FF6FF7070474068036895
:100980009B69184770477047014B1868704700BF54
:10099000880300207047000038B50446074D00F07A
:1009A0005DFE002384F84A302846FFF77FFE0123CE
:1009B00084F87030024B2561636138BD7C030020F0
:1009C000780300200368044607B5D3F880309847C1
:1009D000236820469B6F984700F02AFA2368204638
:1009E0001B6F98470021064800912923152203F028
:1009F00095FF00F01DFA236820461B6F9847F8E723
:100A0000301A002010B5044609F0EAFC236820469D
:100A1000D3F8AC30BDE81040184700F00EBE00F02F
:100A200034BE00F034BE00F0FFBD00F04DBE00F05B
:100A30003FBE0000024B00221A7008F06BBF00BFDF
:100A40001400002010B5044608F070FF94F84B30F5
:100A500013B1024B01221A7010BD00BF1400002018
:100A600008F01CBF10B57C21044621F076F8204622
:100A700010BD000010B590F8341090F878400C4B81
:100A80008C421A7809D03AB90A4A0B491488088866
:100A900010800C8001221A7010BD002AFCD0054A7B
:100AA00005491488088810800C800022F3E700BFF5
:100AB000D0AA0020CCAA0020CEAA002008B5094B5D
:100AC0001B888B4203D8084B1B88934205D9074BE0
:100AD000074A08489E2121F0C9FF074B1980074BA0
:100AE0001A8008BDCCAA0020CEAA0020EC3B020848
:100AF0004F3C0208923C0208D2AA0020D4AA00204F
:100B0000034690F87A0018B1586803681B681847C4
:100B10007047000070B50D4619460B4B1D6035B986
:100B20000A4B0B4A0B4840F2D22121F09FFFC0E94B
:100B30000F52094B003A18BF01221A700368BDE832
:100B40007040D3F88C30184788030020D73C020847
:100B50000F3D0208923C0208D6AA0020012807B5E2
:100B600003460AD84B7800930B78084815220021D9
:100B700003F0D4FE03B05DF804FB01910A5C00921F
:100B800000213922014803F0DAFEF3E7301A002091
:100B900037B50B4A0B4C0223152513705570019283
:100BA0004422009200213922204603F0C8FE002191
:100BB000009135232A46204603F0B0FE03B030BD35
:100BC00074030020301A002010B50446FFF7E0FF40
:100BD0002046BDE8104000F02FBD000007B5074BD0
:100BE00003EB800301932A2300933922042300217D
:100BF000034803F0A4FE03B05DF804FB04000020EA
:100C0000301A002070B5154D04460020FFF7F4FDA2
:100C10002A6892F86A30013382F86A3000F0FCF8F2
:100C20000F4B28681A781B7880F84A2023B10D4DA5
:100C30002B7803F0FF0623B1BDE870400020FFF7DA
:100C400009BE09F0CDFB084B30461E60FFF7C6FF1A
:100C5000204603F052FE01232B7070BDD8AA00205D
:100C600014000020900300208C030020304B70B54E
:100C7000304C05461868D4F80414013018602E4B27
:100C800021F0080103281A682C4BC4F8041427DC4F
:100C90004FF4C87101FB0022C3F8AC200CBFE8235D
:100CA000C8230233254A1B0443F4F1731361244B18
:100CB0005361A3F5F073C2F88830224BC2F8B0300C
:100CC00001235362FFF78AFF1A4AD2F8043443F033
:100CD00008032846C2F80434BDE8704003F00DBE96
:100CE000C3F8AC20184A1A6102F101125A61174A7E
:100CF000C3F88820134AC3F8B02001225A620020AA
:100D0000FFF76CFFD4F8043443F00803C4F804344C
:100D10000020FFF79FFD0E4B00221A700D4B186844
:100D200020B10368BDE870401B6A184770BD00BF62
:100D30008C030020006C0140880300200068014003
:100D4000E301CA0093018006E201CA000300CA0061
:100D500090030020D8AA002008B5044B014618686B
:100D600001B1012109F056FB012008BDD8AA0020DD
:100D7000054B064800225A609A60054A1A60054BE6
:100D80000360FFF7C9BC00BF7C030020780300208C
:100D90000C3B0208343B0208012108B5002208463A
:100DA00006F06DF80A4B186028B90A4B0A4A282148
:100DB0000A4821F05BFE00220421012006F0FEF823
:100DC000074B186018B9074B034A2C21F0E708BD00
:100DD00098030020383E0208813E0208B03E020817
:100DE00094030020FF3E0208024B4FF0FF311868C9
:100DF00006F08FB898030020014B186806F0B5B8CC
:100E000098030020024B0021186806F082B800BF4A
:100E100098030020FFF7F0BF03480449006800234F
:100E20001A4606F006B900BF9403002018000020FF
:100E300013B5084C00231A4601A9206806F02AF9C8
:100E400020684FF0FF33002201A906F023F902B019
:100E500010BD00BF9403002003685B6C184701209D
:100E6000704703689B6A1847FEE740F2EF3070470F
:100E7000054B0360054B4FF08062C3F88820BFF339
:100E80004F8FBFF36F8F7047A040020800E100E072
:100E900010B504464FF45A61FFF7EAFF204620F0F0
:100EA0005CFE204610BD000082B0002301930E4B73
:100EB0001A6B42F400021A631A6B02F400020192E8
:100EC000019A1A6942F400021A611A6922F40002B6
:100ED0001A61064B064A1A61064A5A61064B4FF0E0
:100EE00080629A6002B07047003802404C1A0020BD
:100EF00049110008690E000800E100E008B50A2861
:100F000009D8DFE800F006100E08080808101010D5
:100F10001000022008BD054B054A0648902121F02B
:100F2000A5FD0020F6E70120F4E700BF413F0208DD
:100F30005C3F0208A73F020838B50C46887FFFF7E0
:100F4000DDFFA58AE28A164B2169586342EA054211
:100F50005A64628BD963521B1A642568082D0ED11E
:100F60009A611A615862207F0E4A42EA0062DA6191
:100F7000E2681A620C4A5961D9601A6038BD0022D1
:100F8000D8611A61E1680A0A480902F4784200F45B
:100F9000FC600243C1F3C4010A439A63034AECE7CD
:100FA00000B00240090001000123020001230300F8
:100FB00008B50B280BD8DFE800F00612100A0A0A61
:100FC0000A0808080808022008BD0520FCE7054BB0
:100FD000054A06486F2121F049FD0020F4E7012071
:100FE000F2E700BF413F0208F43F0208A73F0208B2
:100FF0002DE9F04191F81D800C464046FFF7D8FFDF
:10100000A77F05463846FFF7D3FF06463846FFF769
:1010100075FFA18A628B444B521A1A649A61228B23
:10102000521A1A61E28A586342EA01425A642169FB
:101030006268D963DA602068802828D0227F0FD8C0
:10104000202867D0402865D004281AD0364B45EABE
:10105000026545F40035B845DD6161D0334A44E0AE
:10106000B0F5807F04D0B0F5007FEFD1304800E0CC
:10107000304840EA0262DA61E2681A625E625961EF
:1010800032E045EA026242F40032DA61F6E7A06833
:10109000021DDA62227F45EA026545F40035DD6112
:1010A0005E625961017841B1012921D0224B234A66
:1010B00023484FF48D7121F0D9FCDA69418822F47C
:1010C0007F42013922F0100242EA0122DA61012155
:1010D000154BDA6942F02002DA61DA699206FCD433
:1010E00010229A600029B9D0164A1A60BDE8F08132
:1010F000B2F1FF01DA69408822F47F4200F1FF304B
:1011000022F0100242EA002242F0100218BF012130
:10111000DA61DDE745EA0262034B42F40032B4E7EC
:1011200042F20132E1E700BF00B0024001230100BA
:10113000090002000A0002003E400208584002086E
:10114000A73F020801230200024B1B68586803688E
:101150005B691847D8AA002070B5044625460A4B9B
:101160000C30002660602672667245F8203B6022D3
:10117000294609F0A5FA04F55A63EE6024359D422C
:10118000FBD1204670BD00BFA0400208034B1A6887
:10119000D207FCD423229A60704700BF00B00240FF
:1011A0007047000030B50F4C2568ED07FCD42325AF
:1011B0000904A56041F001010225FF2B656361640C
:1011C000E0630AD00849656241EA0363E361074BC3
:1011D00022626061E060236030BDE561039BA36330
:1011E000034BF8E700B002400900010001000200D3
:1011F0000100030030B50E4C2568ED07FCD4232513
:101200001204A56042F001020225FF2B65636264AF
:10121000E063E16008D01B0643F00213E361054B75
:1012200065626061236030BD034BE3610123F9E730
:1012300000B0024001000200020002FF30B50B4C7A
:101240002568ED07FCD4232512041B06A56043F492
:101250000033022542F0010265636264E063E160ED
:10126000E361034B65626061236030BD00B0024002
:1012700001000200012070470C2070470C2303FB83
:101280000100083070470C2303FB01000830704751
:10129000012070474FF4767070474FF4767303FB6C
:1012A0000100083070474FF4767303FB01000830EB
:1012B0007047012070471020704700EB0110083084
:1012C000704700EB011008307047084601F026BA5D
:1012D00010B5034B0360044607F067FE204610BDBF
:1012E0005841020810B50446FFF7F2FF20461421CA
:1012F00020F033FC204610BD10B5034B03600446BC
:1013000007F053FE204610BD2441020810B50446E4
:10131000FFF7F2FF20464FF4787120F01EFC2046C4
:1013200010BD000010B5034B0360044607F03DFEFE
:10133000204610BDF040020810B50446FFF7F2FF4A
:101340002046182120F009FC204610BD10B5084B9E
:101350000360044600F20C40FFF7BAFF04F12C00D2
:10136000FFF7CAFF04F11400FFF7DCFF204610BDB1
:101370008C41020808B50248FFF7E8FF08BD00BF2E
:101380006C12002010B50446FFF7E0FF20464FF432
:10139000B06120F0E2FB204610BD00002DE9F341D2
:1013A00001F03EF8054601F03FF8002401462346CF
:1013B0002846224600940FF07DFF274B274A1A60EB
:1013C000204601F02FFC264D264B274A27489A60DD
:1013D0000FF0D8FE2B68BFF35B8FDB0735D42846B0
:1013E00020F0BDFB88B3224C224B236004F224463C
:1013F00004F1140004F12C0804F20C476060C4F8F6
:101400000880E760266107F0D1FD1B4B6361404611
:1014100007F0CCFD194BE362384607F0C7FD184BC7
:10142000C4F80C3404F5846001F072FC224604F523
:101430008461304601F062FC304601F06FF91148DA
:1014400021F032FB284620F096FB0F4802B0BDE8A1
:10145000F041FFF7A1BA00BF3CAB00201804002008
:1014600068120020380400201C0400201C0000200A
:101470006C1200208C410208F0400208244102084E
:1014800058410208751300089C03002070470000B3
:101490000148FFF797BA00BF9C03002070B5244EA7
:1014A000244C254D254B23603046FFF755FE28463A
:1014B00015F006F822480DF0C3FF224B2248DC60ED
:1014C00000224FF48071C3E9121220491A86C3E941
:1014D0001A121F4999671F4983F858200B604FF46F
:1014E000507101801C485A6601801C4883F87020A6
:1014F0004FF4F071C3E90422C3E90622C3E90822CC
:10150000C3E90A22C3E90E22C3E91022C3E9142267
:10151000C3E917225A67C3E901650180104883F8BF
:10152000342001800F490A700F4A1A6070BD00BF55
:10153000C40400206412002038040020DC3B0208B0
:101540001C0400209C030020CCAA00200100000104
:1015500000000101D8AA0020D2AA0020CEAA0020B3
:10156000D4AA0020D0AA0020683D02080148FFF755
:101570007FBC00BFC40400200020704781807047FA
:10158000C180704701817047418170477047704743
:1015900070477047704710B4C4880368121B848872
:1015A0005B6D091B12B25DF8044B09B218474FF688
:1015B000FF7383814FF0FF3303621368C3611060D0
:1015C0007047002070478B888380012070477047E8
:1015D00080F82610704790F82600704710B500225A
:1015E000B1F90840B1F90A10028042808480C180BC
:1015F00010BD0022028042808280C2807047017745
:10160000704780ED080A704780F82410704780F812
:101610002510704701207047983070478C30704714
:101620008430704770470000024B902283F85A23A1
:10163000704700BF00E100E0704770477047704797
:1016400010B52C21044620F088FA204610BD10B5B4
:10165000BC21044620F081FA204610BD70B5044636
:1016600008F071F923685D6E0CF074FD01462046A8
:10167000A8472368D3F8885000232046AC461A4672
:10168000BDE870404FF04041604708F00DB908F0E8
:101690006EBA90F8252012B103685B69184770474D
:1016A00090F825201AB190F8242002B118607047F4
:1016B000044B4FF08062C3F88820BFF34F8FBFF315
:1016C0006F8F704700E100E0024B4FF080629A603C
:1016D000704700BF00E100E070B50023124E838028
:1016E000124B0360336893F8582005460AB1D86C52
:1016F00000B998680368DB6A98473368B0FA80F4E9
:10170000D86C640930B10368DB6A9847002808BFC9
:1017100044F001042CB9064B064A07482C2121F05D
:10172000A5F9284670BD00BFD8AA00209C42020837
:1017300098410208F64102082F42020870B5244E73
:101740003568BFF35B8F15F001053FD1304620F0BF
:1017500006FA00283AD01F4C1F4B256104F13400D3
:10176000C4E90035C4E90255E584A562A5850EF0FB
:10177000C6F804F158000AF09DFB184BA3652046FB
:10178000174B40F8843BFFF7A7FF164BC4F8843093
:101790002433C4F88C306423C4E928350023C4F80A
:1017A000AC30C4F8B030C4F8B430C4F8B8300E4827
:1017B0000E4BC4F89050C4F89C50C4F8A850C4F81C
:1017C000983021F071F9304620F0D5F9014870BD0C
:1017D000EC170020F0170020C84E0208BC42020897
:1017E000344302087C4E0208251600085C4E0208AD
:1017F0000149002006F070BF590D000808B56420AB
:1018000005F031FBFBE7000030B595B01022002158
:1018100009A821F032FB1422002102A821F02DFB9F
:1018200000241F4B00941A6C42F080521A641B6C07
:1018300003F080530093009B1A4B01941A6842F402
:1018400040421A601B6803F4404301930122019B4C
:101850004FF48033CDE9072302254FF4800308219C
:10186000CDE90D534FF4B473CDE90F1304200623D3
:10187000CDE9120307A8119504F040FE04F08AF8A0
:101880000F23CDE9023504944FF480534FF4A05454
:10189000052102A8CDE9054304F006FC15B030BDD2
:1018A00000380240007000402DE98048BBB002F0D3
:1018B0003DFAFFF7A9FF142200212DA8002421F0F2
:1018C000DCFAC84B03941A6BC74842F010021A6343
:1018D0001A6B02F010020392039A04941A6B42F0FE
:1018E00002021A631A6B02F002020492049A05942F
:1018F0001A6B42F040021A631A6B02F04002059222
:10190000059A06941A6B42F008021A631A6B02F0E9
:1019100008020692069A07941A6B42F480721A63C0
:101920001A6B02F480720792079A08941A6B42F0BD
:1019300020021A631A6B02F020020892089A099496
:101940001A6B42F480621A631A6B02F48062099285
:10195000099A0A941A6B42F080021A631A6B02F019
:1019600080020A920A9A0B941A6B42F004021A63DC
:101970001A6B02F004020B920B9A0C941A6B42F051
:1019800001021A631A6B02F001020C920C9A0D9478
:101990001A6B42F400721A631B6B03F40073224645
:1019A0004FF480510D930D9B03F0C4F98F48012231
:1019B000082103F0BFF98E482246462103F0BAF908
:1019C00022468C488021012603F0B4F94FF0030928
:1019D0004FF4805384482F942DA9CDE92D3611253D
:1019E000CDF8C09003F022F8082280482DA9CDE957
:1019F0002D25CDE92F4403F019F846227C482DA966
:101A00008027CDE92D26CDE92F4903F00FF82DA928
:101A10007848CDE92D75CDE92F4903F007F87648D0
:101A2000764D774A026002F025FA764A2846C5E9E3
:101A30000024C5E90244C5E90A44C5E90C4402F0A2
:101A400025FB3146284602F0D9FB39462246694833
:101A50006D4D03F06FF9142002F094F939463246C7
:101A6000644803F067F90A2002F08CF92422214629
:101A700017A8109421F001FA1822214611A821F08C
:101A8000FCF9342221462DA821F0F7F92C22214619
:101A90000DEB070021F0F1F95C4A02274FF0040832
:101AA000C5E900240EA97D222846C5E90286CDE9B4
:101AB0000E2702F06DFC17A92846CDE91764CDE981
:101AC0001944CDE91B44CDE91D441F9402F08CFE5E
:101AD0001C232122CDE911320F211922CDE9131245
:101AE000284611A9CDE9154402F041FE4146284699
:101AF00002F02CFE42F21071284602F080FF2146CF
:101B0000284602F0E0FB4FF480704FF40072CDE9FC
:101B10002D024FF4806A4FF40062CDE92FA24FF4FA
:101B200080534FF40052CDE931324FF480434FF4EB
:101B300080324FF4003CCDE933324FF480224FF431
:101B4000002ECDE935C22DA94FF080722846CDE98F
:101B500037E24FF0C80B399702F0C4FD102320A9DB
:101B60002846CDE922B3CDE92448CDE92044CDE98A
:101B70002674CDE928442A9602F042FD21462846E3
:101B800002F02DFD2248234A0462C0E900242023EC
:101B90004022C0E904324FF4C072C0E906244FF479
:101BA00080434FF48052C0E909232DA90723CDE9D2
:101BB0002E38CDE93039C0E90248CDE932772D978A
:101BC00004F054FE01F0E2FF01F092FF34222146BE
:101BD00020A821F052F9DFF844800F4BC8F820709C
:101BE0001EE000BF003802400018024000280240FA
:101BF00000000240001C02408C1A00204C1A0020F9
:101C00000030024000B00240301A0020006C014059
:101C1000B4180020400100A00068014034190020E1
:101C2000C8E90034CA214FF4F173C8E90913CB2085
:101C300040F2E313C8E90B034046C8E90244C8E98F
:101C40000446C8E90667A8F8344088F8364003F02F
:101C50006BFDFF224FF0050CCDE925244FF04042EB
:101C6000CDE928C24FF4F07320A922464046CDE9C1
:101C70002337CDE92AB3CDE9204B2294CDF89CA09F
:101C8000ADF8B0408DF8B24003F01AFED8F800204D
:101C9000936923F001039361284602F00BFE31465D
:101CA000384601F0EFF828231522214628460094F3
:101CB00002F034FE2DA92846CDE92D44CDE92F446C
:101CC000CDE93144CDE93344CDE93544379402F0D0
:101CD00009FD4FF448712246404603F01FFED8F834
:101CE000002022489369224DDFF8A88086603343A4
:101CF0009361204B4FF0100EC0E900361B23C0E962
:101D000003E3C0E905A4C0E9074403F057FF01F06D
:101D1000B5FD01F0E5FC01F05BFC174B2C62C5E959
:101D2000008328464FF48043C5E90434C5E90244E2
:101D3000C5E9064403F00CFA284603F0B1FAFEF7B1
:101D4000A1FCFEF79EFC05F01BF80C4A0C4821464E
:101D500005F042F80B4B0C4A186021460B4805F081
:101D60003BF80B4B186005F01DF8FEE7E818002063
:101D7000DC190020001000A0801A0600B8430208F9
:101D8000FD170008B01800209443020893060008CD
:101D9000AC180020005400400268034B9A4201D165
:101DA00001F0DEBF704700BF001000407047000028
:101DB00082B00E4B00220092596C41F4804159646C
:101DC000596C01F48041009100990192196C41F025
:101DD000805119641B6C03F080530193019B0F2108
:101DE0006FF0010002B001F0F3BF00BF0038024005
:101DF0000268094B9A4282B00BD100230193074B32
:101E00001A6B42F480521A631B6B03F480530193E4
:101E1000019B02B0704700BF003002400038024012
:101E200007B50F4B02689A4216D10022A3F5F04382
:101E30000192196B41F4000119631B6B03F4000359
:101E4000019305215A20019B01F0C2FF5A2003B0E3
:101E50005DF804EB01F0EEBF03B05DF804FB00BFDA
:101E600000B0024010B5044688B01422002103A837
:101E700021F003F82268174B9A4228D103F54C430E
:101E8000002401945A6C144842F000625A645A6C5F
:101E900002F000620192019A02941A6B42F40072FD
:101EA0001A631B6B03F4007302930422029B022348
:101EB000CDE9032303A90D23079302F0B7FD5C20AE
:101EC0002246052101F084FF5C2001F0B3FF08B039
:101ED00010BD00BF006C01400024024030B5044634
:101EE00089B01422002103A820F0C7FF22681A4BF2
:101EF0009A422FD1194C1A4800250195236B43F0C3
:101F000002032363236B03F002030193019B4FF44D
:101F100040721223CDE9032301210323CDE90513E8
:101F2000042303A9079302F081FD0295236C43F477
:101F300000132364236C03F400130293029B236AAF
:101F400043F400132362236A23F400132362642002
:101F500001F018FF09B030BD0054004000380240C5
:101F60000004024008B502680A4B9A4210D10A4A9E
:101F70000A48136C23F4001313644FF4807102F0C9
:101F800039FEBDE8084005484FF4007102F032BE4A
:101F900008BD00BF00540040003802400004024069
:101FA00010B5044690B03C22002101A820F065FF46
:101FB0002268124B9A421FD1082301934FF4B47345
:101FC000059301A80623089304F036F908B1FFF73A
:101FD000EDFE0B4B00220092596C41F08061596478
:101FE0005B6C03F08063009358200521009B01F097
:101FF000EFFE582001F01EFF10B010BD0068014038
:1020000000380240F0B5044689B01422002103A82C
:1020100020F033FF2268244B9A4242D1234B2448BC
:10202000002400949A6B42F002029A639A6B02F0C9
:1020300002020092009A01941A6B42F002021A63A3
:102040001A6B02F002020192019A02941A6B42F09A
:1020500020021A631B6B03F0200302930226032560
:10206000029B0A27402303A9CDE90336CDE9065791
:1020700002F0DCFC4FF49863CDE903360D480923E8
:1020800003A90793CDE9054502F0D0FC4FF4407356
:102090000848079703A9CDE90336CDE9054502F0C5
:1020A000C5FC09B0F0BD00BF001000A00038024020
:1020B000000402400014024008B50268094B9A422D
:1020C0000FD1094A0948936B23F00203936340211F
:1020D00002F090FDBDE8084005484FF4F86102F0B9
:1020E00089BD08BD001000A0003802400004024075
:1020F00000140240F0B587B000230393304B1C68F6
:10210000002C5AD101221A602E4B00949A6B2E4853
:1021100042F001029A639B6B03F0010300930227D4
:1021200003260C25009B01A94FF68373CDE90137E7
:10213000CDE9046502F07AFC48F233132348059593
:1021400001A9CDE90137CDE9034602F06FFC4CF25D
:1021500003731F48059501A9CDE90137CDE9034671
:1021600002F064FC40F2FF631A48059501A9CDE92D
:102170000137CDE9034602F059FC4FF63F031648FC
:10218000059501A9CDE90137CDE9034602F04EFCE2
:102190004FF47F431148059501A9CDE90137CDE9F9
:1021A000034602F043FC0D230D48059501A9CDE936
:1021B0000137CDE9034602F039FC07B0F0BD00BF9E
:1021C000981A002000380240001002400018024017
:1021D000000C02400020024000140240001C02409B
:1021E0000008024008B5174B1A6852BB01221A605A
:1021F000154A1648936B23F0010393634FF68371DE
:1022000002F0F8FC124848F2331102F0F3FC1148D6
:102210004CF2037102F0EEFC0F4840F2FF6102F055
:10222000E9FC0E484FF63F0102F0E4FC0C484FF485
:102230007F4102F0DFFCBDE808400A480D2102F0B2
:10224000D9BC08BD941A002000380240001002409A
:1022500000180240000C024000200240001402401E
:10226000001C02400008024070B588B000230293B1
:10227000204B1A6C42F010021A641B6C03F010031E
:102280000293054601A903A8029B03F0B7FF069B32
:102290004BBB03F0A3FF184E184B336040F2E733FB
:1022A000F360174BB0FBF3F3013B73603046002340
:1022B0003361B360B36104F07DFC044680B93046FD
:1022C00004F03AFB044658B9362001F0B3FD0F2D57
:1022D0000DD822462946362001F07AFD094B1D60B3
:1022E000204608B070BD03F079FF4000D3E7012419
:1022F000F6E700BF003802409C1A002000100040A2
:1023000040420F00580000207047FEE7FEE7FEE75E
:10231000FEE77047014804F04DBB00BF9C1A002047
:10232000014803F070BA00BF34190020014801F0E1
:10233000DBBE00BF4C1A0020014802F0DEB800BF2F
:10234000301A00200120704708B520F039FE16230E
:1023500003604FF0FF3008BD08B520F031FE1623B2
:102360000360FEE770B50D4614460E46731B9C4293
:1023700001DC204670BDAFF3008006F8010BF5E7E5
:1023800070B50D4614460E46731B9C4201DC204678
:1023900070BD16F8010BAFF30080F5E74FF0FF308A
:1023A00070474FF400534B60002070470120704786
:1023B000002070470A4A116808B5034609B909495F
:1023C00011601068694603448B4206D920F0F8FD7D
:1023D0000C2303604FF0FF3008BD1360FCE700BF23
:1023E000E41A002018B80020704710B504210446F4
:1023F0001FF0B3FB204610BD012908B506D0022905
:1024000008D059B900F04CFC006808BD00F048FC49
:102410004068FAE700F044FC8068F6E70020F4E743
:1024200000487047F04302080220704713B50024AB
:1024300051B1036801948DF8034001AA9C680DF125
:102440000303A04702B010BD0846FBE7C0897047F0
:10245000008A7047C088704780887047807A00F093
:102460007F007047807AC0097047002070470000E5
:102470009FED010A704700BF0000000070477047E1
:1024800000F598730868496803C370477047704740
:102490004160704770470000064BC0F84C31002384
:1024A000C0F8503100F5A273C0F84801C0F84031BF
:1024B000704700BF59250008012303727047704719
:1024C000704710B4C26841685410034601EB6200C3
:1024D000D20748BF0A599B685DF8044B48BFD358E0
:1024E00018470346406830B19A681AB9D86800F0B6
:1024F000010070470120704710B50C2104461FF001
:102500002CFB204610BD10B5102104461FF025FB02
:10251000204610BD10B54FF4AE7104461FF01DFBF0
:10252000204610BD10B50BF015FE0368BDE8104045
:10253000DB6B184710B50446D0F8400158B103686A
:10254000DB68984738B1D4F8400103689B68984726
:102550000023C4F8403110BD2DE9F14FD0E9556A90
:102560000746B06803681B6A9847B0F5767F05D2C6
:10257000444B454AA321454820F078FA7068036827
:102580001B6A98470F2803D8414B3F4AA421F2E722
:10259000F06803681B6A98470B2803D83D4B3A4AFA
:1025A000A521E8E70BF0D6FDDFF8F09004300BF042
:1025B0000FFED9F8000010B10368DB689847D9F81E
:1025C000000010B103681B689847DFF8D480D8F882
:1025D000000010B103685B699847D7F83C0110B15F
:1025E00003685B689847D8F8000010B103681B685F
:1025F0009847D7F83C0110B103689B689847F0688A
:10260000036800215B6A98474FF0000B224BC0F82B
:1026100004B0044680F808B00360B0680368594607
:102620005B6A9847054600F0A7FB70680368594647
:102630005B6A98472946064600F07CFB331DC7F8C5
:102640003C61C9F80040C8F80050CAF800302B6857
:10265000C6F808A02846DB68EE6398473368304622
:102660001B689847214628460DF05AFE23682046ED
:102670001B69984723685B69204601B0BDE8F04FAD
:10268000184700BF18440208A6440208784502080B
:10269000BF450208624602087C47020820AB0020C2
:1026A0001CAB0020044B1B6893F858200AB1D86C6F
:1026B00000B99868704700BFD8AA002070B51646C8
:1026C00004460D460BF052FE104B1C60104B23606D
:1026D000104B0021C4E951310F4BC4E95311186864
:1026E0000368C4E94F119B68C4E955659847FFF733
:1026F000D9FF15F038FDFFF7D5FF15F0AFFDFFF757
:10270000D1FF15F0B7FD204670BD00BF2CAB0020F7
:102710002847020810470208D8AA0020064BC0F834
:102720004C310023C0F8503100F5A273C0F84801C5
:10273000C0F84031704700BF59250008406A704713
:10274000806A704770478B88C0690A68DB0A50F856
:1027500023001044704710B50446BAB1107B68B12D
:10276000537BD27A1B0203F4E0631A43236A03EB20
:1027700082031A888A4202D193F9020010BD05D85B
:10278000013880B204330028F3D1F7E70020F5E7E1
:1027900010B52C2104461FF0E0F9204610BD0000C2
:1027A00030B58BB00446BDF860500895BDF85C505C
:1027B00007959DF8505006959DF84C5005959DF84D
:1027C000485004959DF8445003959DF8405002955B
:1027D0009DF83C500195BDF8385000950DF04CF92E
:1027E000064B2360159BE361169B2362199B636272
:1027F0001A9BA36220460BB030BD00BFA047020861
:10280000704770477047704770477047704710B502
:102810004FF4767104461FF0A0F9204610BD2DE953
:10282000F0411D460368BDF918701B6B044616463F
:1028300098472368314620465B6B984723682946B2
:1028400020469B6B9847236839462046DB6BBDE8E2
:10285000F0411847094A02604FF4807100228184D8
:10286000FF21C0E90122C0E90322C0E90522C0E935
:10287000072280F826108262704700BF8C4F020842
:102880002DE9F04F054685B0A84600240DF09CFBCD
:10289000564BEC6348F8403B05F16C0A404605F1A5
:1028A0009807FFF7D7FF504605F50E76FFF7D2FFE2
:1028B000384609F09DFB4FF4F07B304609F098FB59
:1028C000224621464046CDF800B04FF44873FFF74A
:1028D000A6FF05F104094FF07F43AB664146484629
:1028E00006F046FD224621465046CDF800B04FF492
:1028F0004873FFF794FF3E4BC5F894305146484665
:1029000006F036FD4FF4A87803A93846ADF80C4020
:1029100006F0C0FC43463846CDF80080482240F21D
:10292000A511FFF77CFFA8221146384609F00BFCE1
:10293000384670226FF0700109F08AFC2346642249
:1029400021463846009406F052FB2146384609F0ED
:1029500029FC60230F223846012109F0DFFB3846AD
:10296000012109F07DFB3846012109F07CFB394645
:10297000484606F0FDFC03A93046ADF80C4006F0D1
:1029800089FC43463046CDF8008048222921FFF7D4
:1029900046FFA8221146304609F0D5FB304670228A
:1029A0006FF0700109F054FC234664222146304642
:1029B000009406F01CFB2146304609F0F3FB60232F
:1029C0000F223046012109F0A9FB3046012109F010
:1029D00047FB3046012109F046FB4846314606F0E8
:1029E000C7FC284605B0BDE8F08F00BF08480208C4
:1029F000A3B8B3FF7047000030B5164D2C68BFF385
:102A00005B8F14F001048FB020D128461FF0A7F887
:102A1000E0B13F230993104B0893104B1049114824
:102A20000A940122CDE906430423CDE903320A23A7
:102A30000093CDE90B44CDE901440594FFF7B0FEC6
:102A4000094820F031F828461FF095F805480FB0E6
:102A500030BD00BFE81A0020C05C0208CC5C020850
:102A600080190790EC1A0020F52900087047000033
:102A700030B5164D2C68BFF35B8F14F001048FB096
:102A800020D128461FF06BF8E0B13F230993104B8B
:102A90000893104B104911480A940122CDE90643CE
:102AA0000423CDE9033214230093CDE90B44CDE98F
:102AB00001440594FFF774FE09481FF0F5FF28460E
:102AC0001FF059F805480FB030BD00BF181B00209B
:102AD000C45C0208D05C0208901907901C1B0020FF
:102AE0006D2A00087047000030B5164D2C68BFF302
:102AF0005B8F14F001048FB020D128461FF02FF80F
:102B0000E0B13F230993104B0893104B1049114833
:102B10000A940122CDE906430423CDE90332282398
:102B20000093CDE90B44CDE901440594FFF738FE4D
:102B300009481FF0B9FF28461FF01DF805480FB0DF
:102B400030BD00BF481B0020C85C0208D45C0208EE
:102B5000A01907904C1B0020E52A000800207047B0
:102B6000002070470EB403B503AB002153F8042BCB
:102B700001930CF085FA02B05DF804EB03B07047E6
:102B80000CB407B504AB53F8042B01930CF078FA9E
:102B900003B05DF804EB02B070470000436C10B561
:102BA000044673B3038F2BB9184B194AC521194832
:102BB0001FF05CFFC38E00EB43035B8C0BB30EF086
:102BC000A6F8238F012B03D8134B144ACB21EEE731
:102BD000E28E531C9BB2092B194688BFA3F10A0150
:102BE00004EB410140F63F10498C814209D10A2B88
:102BF00004EB420228BF002304EB4303508C5884AB
:102C000051842046BDE810400DF084BF34480208CE
:102C10003D480208E84802083249020840490208D3
:102C20000DF03FBF38B518BB124B13481C68134951
:102C3000B4B1226822440260626822440A60A26839
:102C400014440F4B00221A8000F02AF8054600F0C9
:102C500025F80C4B1C600C4B1D600C4B188007E0DA
:102C60000B4B03600B4B0B600B4B1C68002CE8D12B
:102C700038BD00BF841B00207C1B0020781B002077
:102C8000801B002030AB002038AB002034AB00208C
:102C9000B4190790B0190790B81907900020704731
:102CA00000487047881B002010B5FFF7E1FE044C78
:102CB0002060FFF719FF6060FFF79EFEA06010BD67
:102CC000881B002010B5002404600C6014601C6098
:102CD00010BD704710B54FF4AE7104461EF03DFFB5
:102CE000204610BD10B50446D0F8580100F013F886
:102CF0002046BDE810400BF0C9BA000010B50446EC
:102D0000FFF7DCFC014B2360204610BD1C4A020883
:102D10000022026070477047704704387047704760
:102D200010B5102104461EF018FF204610BDA0F17A
:102D30000400F5E700228260024A02601832426015
:102D4000C1607047704A02087047000010B5034B1D
:102D500003600446FFF759FD204610BD984A02085B
:102D600010B50446FFF7F2FF20464FF476711EF0CF
:102D7000F4FE204610BD000010B50446FFF780FDAC
:102D8000014B2360204610BD984A0208FFF73EBD64
:102D900070470020704710B5044600F063FBA8217F
:102DA000E0B200F07BFB10BD13B500240221C0B2DD
:102DB0008DF8074000F072FB8DF807009DF8073092
:102DC00003F00F038DF807309DF80730022B88BF02
:102DD0008DF80740044B9DF807209DF807005A70B6
:102DE00000229A7002B010BD941B002073B5154CE0
:102DF0001546A37862789A420E461FD903B3012B79
:102E00000CBF0921002104230DEB0302C0B200F026
:102E100063FB9DF804309DF805201B0203F47063EA
:102E2000134333809DF806309DF807201B0203F4FE
:102E3000706313432B80A3780133A37002B070BD7D
:102E40000321E0E7941B00200122A421C0B200F07E
:102E50000BBB0022A421C0B200F006BBFFF7F9BFF4
:102E600070470000064A1378984208D0517888428B
:102E700005D00BB119B90123D05400F0F3BA704753
:102E8000971B002038B504460D460020C949FDF7C0
:102E900065FEC9490320FDF761FEC8490020FDF722
:102EA0005DFEC7490220FDF759FEC4490020FDF729
:102EB00055FEC4490020FDF751FE0A2000F024FB16
:102EC000C1490020FDF74AFEC0490020FDF746FE3B
:102ED0000A2000F019FBBE490020FDF73FFEBD4966
:102EE0000020FDF73BFEBC490020FDF737FEBB4943
:102EF0000020FDF733FEBA490020FDF72FFEB94947
:102F00000020FDF72BFEAB490020FDF727FEB64958
:102F10000020FDF723FEB5490020FDF71FFEB44950
:102F20000020FDF71BFEB3490020FDF717FEB24954
:102F30000020FDF713FEB1490020FDF70FFEA74961
:102F40000020FDF70BFE9B490020FDF707FEAC4972
:102F50000220FDF703FEAB490020FDF7FFFDAA4963
:102F60000020FDF7FBFDA9490020FDF7F7FDA8496A
:102F70000020FDF7F3FDA7490020FDF7EFFDA6496E
:102F80000020FDF7EBFDA5490020FDF7E7FDA44972
:102F90000020FDF7E3FD95490020FDF7DFFDA14985
:102FA0000020FDF7DBFDA0490020FDF7D7FD9F497C
:102FB0000220FDF7D3FD81490020FDF7CFFD9C499C
:102FC0000620FDF7CBFD9B490020FDF7C7FD9A4980
:102FD0000E20FDF7C3FD99490020FDF7BFFD98497C
:102FE0000E20FDF7BBFD97490020FDF7B7FD964980
:102FF0000A20FDF7B3FD95490020FDF7AFFD944988
:103000000020FDF7ABFD6D490020FDF7A7FD9149BC
:103010000A20FDF7A3FD90490020FDF79FFD8F4991
:103020000F20FDF79BFD83490020FDF797FD8C499C
:103030000F20FDF793FD81490020FDF78FFD8949A1
:103040000A20FDF78BFD7F490020FDF787FD8649AB
:103050000F20FDF783FD7D490020FDF77FFD8349AB
:103060000F20FDF77BFD82490020FDF777FD8149A8
:103070000A20FDF773FD80490020FDF76FFD7F49B1
:103080000A20FDF76BFD4D490020FDF767FD7C49E7
:103090000A20FDF763FD70490020FDF75FFD7949C7
:1030A0000F20FDF75BFD63490020FDF757FD7649D2
:1030B0000F20FDF753FD61490020FDF74FFD7349D7
:1030C0000A20FDF74BFD5F490020FDF747FD7049E1
:1030D0000F20FDF743FD5D490020FDF73FFD6D49E1
:1030E0000F20FDF73BFD4D490020FDF737FD6A49F4
:1030F0000020FDF733FD69490020FDF72FFD6849E9
:103100000020FDF72BFD67490020FDF727FD6649EC
:103110000020FDF723FD27490020FDF71FFD63492F
:103120000320FDF71BFD23490020FDF717FD214972
:103130000020FDF713FD5E491020FDF70FFD1D492E
:103140000020FDF70BFD5B491020FDF707FD002077
:103150005949FDF703FD782000F0D6F9002C00F066
:10316000C980022C03D155490020FDF7F7FC012D41
:103170000BD153490020FDF7F1FC52490420FDF723
:10318000EDFC51490420FDF7E9FC50490020FDF712
:10319000E5FC4F490020FDF7E1FC4E490020FDF71A
:1031A000DDFC4D490020FDF7D9FC4C490020FDF71E
:1031B000D5FC95E0264B0208534C0208244B02082C
:1031C000504C0208224B0208204B02081E4B0208FA
:1031D0001C4B02081A4B0208184B0208164B020837
:1031E000144B0208124B0208104B02080C4B020849
:1031F0000A4B0208084B0208064B0208044B02085F
:103200002B4C0208024B0208004B0208FE4A02083F
:10321000FC4A0208FA4A0208F84A02080E4B020861
:10322000F64A0208F44A0208F24A0208284C020848
:10323000214C0208F04A0208124C0208EE4A020829
:10324000034C0208EC4A0208F84B0208EA4A02085A
:10325000CE4A0208ED4B0208E84A0208DD4B02089C
:10326000CD4B0208C24B0208B24B0208A24B020827
:10327000E64A0208974B0208E44A02088C4B02080F
:10328000814B0208714B0208614B0208564B020841
:10329000464B0208364B0208CC4A0208CA4A0208CA
:1032A000C84A0208C64A0208C44A0208324B020849
:1032B0003F4C02082E4C0208E24A0208E04A02088B
:1032C000DC4A02082D4B0208284B0208DA4A0208A1
:1032D000D84A0208D64A0208D44A0208D24A02084A
:1032E00006490020FDF73AFC05490020FDF736FCB1
:1032F000002038BD0349204637E700BF264B0208AF
:10330000D04A0208DE4A020870B52F4D88B0284620
:1033100002F080F90446002854D12C4A2C4B2D4E43
:103320000190C5E900234FF48043C5E90200C5E9D7
:103330000430C5E906002862336B43F002033363AF
:10334000336B059003F002030193019B4FF48071EE
:103350001223CDE9031302200423CDE9060303A9B8
:103360001D4801F063FB4FF4007303A91A4803934F
:1033700001F05CFB0294336C43F400133364336C50
:1033800003F400130293029B336A43F40013336285
:10339000336A23F400133362224605211F2000F014
:1033A00017FD1F2000F046FD22460521202000F0D9
:1033B0000FFD202000F03EFD284608B0BDE870401B
:1033C00001F0C6BE08B070BD9C1B00200054004038
:1033D000801A0600003802400004024010B586B092
:1033E000194B002400941A6B42F001021A631B6B04
:1033F00003F001030093009B69B90123CDE901317A
:1034000002230493114B039153F8200001A901F00A
:103410000DFB06B010BD0129FBD1022304934FF42C
:1034200088130293094B019153F82000039401A9DA
:1034300001F0FCFA22460F21062000F0C9FC06200C
:1034400000F0F8FCE5E700BF00380240480000202B
:1034500008B5034B012153F8200001F065FC08BDBD
:1034600048000020FFF750BF7FB501238DF81720DB
:103470006422CDE901320DF1170200920A4601469D
:10348000054801F027FF20B1034801F009FFFFF7CD
:103490003BFF07B05DF804FB9C1B00207FB50023B9
:1034A0000A468DF817304FF47A710123CDE90131C6
:1034B0000DF1170100910146064801F09BFF20B174
:1034C000044801F0EDFEFFF71FFF9DF8170007B05D
:1034D0005DF804FB9C1B00201FB54FF47A74CDE906
:1034E0000134009201230A460146064801F082FF9A
:1034F000044620B1034801F0D3FEFFF705FF204644
:1035000004B010BD9C1B002000F03CBC00B595B081
:103510004FF480720C924FF08071052206920F9149
:1035200000220121CDE90312CDE90D22CDE91122BE
:103530000B9213920092102202924FF480020346E3
:103540000191059206A96A46044802F0E2FB0038A0
:1035500018BF012015B05DF804FB00BFF01B002070
:1035600000B595B04FF480730C930623069317486B
:10357000002341F2883206A9CDE90D33CDE911339C
:103580000F930B93139302F07EFBE0B90223CDE976
:10359000003301221023CDE902324FF480010523CC
:1035A000CDE905134FF0807304900F93074841F263
:1035B00088336A4606A902F0ACFB003818BF012028
:1035C00015B05DF804FB0120FAE700BFF01B0020F6
:1035D00000B591B04FF480730893EB2302934FF43E
:1035E000406309934FF4005305934FF0407200235A
:1035F000CDE90A320A22079202A96A4606480F93C9
:10360000CDE90D33019302F0D5FB003818BF01203E
:1036100011B05DF804FB00BFF01B0020F0B589B0CD
:103620002C4B2D4D2D48002400949A6B42F0020241
:103630009A639A6B02F002020092009A9A6942F031
:1036400002029A619A6922F002029A6101941A6B4D
:1036500042F002021A631A6B02F002020192019A0E
:1036600002941A6B42F020021A631B6B03F02003D2
:1036700002934022029B0223CDE90323012103236D
:10368000CDE905130A2703A90926079701F0CEF90A
:103690004FF4806303A9284603930594079601F02D
:1036A000C5F94FF4407303A928460393079701F027
:1036B000BDF9C02303A928460393079601F0B6F984
:1036C00022460F215B2000F083FB5B2000F0B2FB61
:1036D00009B0F0BD0038024000140240000402406E
:1036E00010B54A4C4A4B236090B0204602F0B8FA1D
:1036F000014610B1012010B010BD2046FFF78EFF2B
:103700000123C4E901331023E3604FF0807393FA7F
:10371000A3F3B3FA83F3013B23614FF480620023E8
:103720003A48C4E90523C4E9073302F047FA002800
:10373000E0D1CDE90900CDE90D004FF48074662396
:103740000B9007900F9041F288323048089402A9FC
:10375000029302F098FA08B10420CCE799232B4891
:10376000029341F2883202A902F08DFA0028F3D1C7
:1037700041F28830FFF7CAFE0028EDD1852302937D
:103780004FF080730B930123CDE90900CDE90C3094
:10379000CDE90E00079041F288321C48089402A936
:1037A00002F071FA0028D7D1184841F288320DF1A1
:1037B000070102F0E8FB0028CED1FFF7D1FE002878
:1037C000CAD1812302939DF8073010480A21F022C4
:1037D00092FAA2F2B2FA82F201FA02F203F00F03B5
:1037E000134302A941F288328DF8073002F04BFAF8
:1037F0000028B1D1054841F288320DF1070102F0ED
:1038000063FB00283FF477AFA6E700BFF01B002062
:10381000001000A010B55B20154C00F019FB1548F6
:10382000402101F0E7F94FF48061204601F0E2F910
:103830004FF48071204601F0DDF94FF4007120460D
:1038400001F0D8F98021204601F0D4F9402120462A
:1038500001F0D0F9084B9A6942F002029A619A6924
:1038600022F002029A619A6B22F002029A6310BD62
:1038700000140240000402400038024038B5084DF0
:10388000084B2B60284602F0EBF9044628B90146A4
:103890002846FFF7BFFF204638BD0124FBE700BFE5
:1038A000F01B0020001000A02DE9F743214C224D11
:1038B00001264FF000081027214681464FF6FF727F
:1038C0002846C4E90067C4E90268CDF8048002F024
:1038D000FBFF304600F056FA022321464FF6FF72F6
:1038E0002846C4E90037C4E9026802F0EDFF03236B
:1038F000C4E90037214608234FF6FF722846C4E981
:10390000023802F0E1FF4FF40C7301930423C4E981
:1039100000372146019BA6604FF6FF722846E36000
:1039200002F0D2FF4946284603B0BDE8F04302F05A
:10393000E9BF00BFFC1C0020281D002070B5064612
:103940008EB0002800F0BD805F4B6048604C0025C1
:1039500000959A6B42F001029A639A6B02F00102A1
:103960000092009A01951A6B42F480021A631A6B56
:1039700002F480020192019A02951A6B42F004024D
:103980001A631A6B02F004020292029A03951A6BF0
:1039900042F008021A631A6B02F008020392039ABB
:1039A00004951A6B42F010021A631A6B02F01002AF
:1039B0000492049A05951A6B42F020021A631A6B5E
:1039C00002F020020592059A06951A6B42F0400219
:1039D0001A631A6B02F040020692069A07951A6B58
:1039E00042F080021A631A6B02F080020792079A73
:1039F00008951A6B42F480721A631B6B03F4807390
:103A000008930222089B0C920123CDE90A2309A9FD
:103A10000C220D92099301F009F84CF203732D4822
:103A2000099309A901F002F84FF683732A48099314
:103A300009A900F0FBFF4FF63F032848099309A9A5
:103A400000F0F4FF48F233132548099309A900F068
:103A5000EDFF4FF60C732348099309A900F0E6FF28
:103A600040F2FF632048099309A900F0DFFF80229C
:103A70004FF40073C4E902234FF480614FF4805384
:103A8000C4E904134FF48043C4E906354FF400330E
:103A9000C4E908350323C4E90A352563134B3463AD
:103AA000204623606560A66300F088FA204600F097
:103AB00007FA38202A46052100F08AF9382000F05C
:103AC000B9F90EB070BD00BF0038024000080240D6
:103AD0009C1C0020000C0240001002400014024018
:103AE00000180240001C0240002002401064024006
:103AF00038B5194C194D1A4B2360072102230422B3
:103B0000C5E90031C5E90221C5E90433AB61E260D2
:103B100040232022C4E9042300214FF4C073C4E9E8
:103B200006314FF400604FF48053C4E90803204687
:103B3000C4E90111A162FFF701FF2946204602F006
:103B400095FE084C003818BF0120207040F26950E3
:103B5000FFF7AAFE207838BD281D00200C1D00208C
:103B6000400100A04D00002008B548B1382000F009
:103B70006FF90448044B0360BDE8084000F01EBA2A
:103B800008BD00BF3C1C00201064024038B5074C43
:103B9000074B2360204602F089FE064D014618B906
:103BA00028702046FFF7E0FF287838BD281D002048
:103BB000400100A04C0000202DE9F041164D174CAB
:103BC0002B68064620780F4698476B685420984724
:103BD000C0B211280AD06B6870209847C0B2702319
:103BE0001128237004D00320BDE8F08154232370F2
:103BF0000B4BDFF830802078C8F80050BE422CBF55
:103C00000C2601261E70AB689847D8F80030207843
:103C1000DB6898470020E7E7200000206C1D0020AB
:103C20006D1D0020701D00202DE9F04FDFF8D8B089
:103C3000324ADBF8003006461B69107885B0984799
:103C4000307050B12E4FDFF8C480B24603AA02ADE7
:103C50004FF0000933784B4503D8002005B0BDE88C
:103C6000F08FDBF8003025485B6900780192294627
:103C70009847244B019A1B7813F0080F1FBF29881F
:103C8000108828801180990741BF2988C1F54771A4
:103C9000033129805B0748BF1388396835F8020B68
:103CA00042BFC3F5EF73013313808BB288428CBFE0
:103CB000C31A1B1A9BB232F8021B0193D8F80030CA
:103CC0009CB299428CBF0C1B641A019BA4B2234482
:103CD000052BBC46C8BF3860DCF80030C8BFC8F848
:103CE0000010C6462AF8023FDEF80030AAF8043079
:103CF000043708F1040809F10109ABE76C1D002045
:103D0000641D00206D1D0020701D00205C1D002022
:103D1000054BD3F8882042F47002C3F888204FF096
:103D200000629A60704700BF00ED00E008B50B4BE1
:103D30001A6842F400721A601A6842F480621A60CB
:103D40001A6842F480721A60032000F02FF80020F5
:103D5000FEF78AFAFEF72CF8002008BD003C02406E
:103D6000034A044B11681B780B441360704700BF73
:103D7000741D002054000020014B1868704700BFDC
:103D8000741D002038B50446FFF7F6FF631C1CBF06
:103D9000054B1B78054618BFE418FFF7EDFF431BE2
:103DA000A342FAD338BD00BF540000200749CA68B7
:103DB00022F4E0620302120403F4E063120C1343E2
:103DC00043F0BF6343F40033CB60704700ED00E085
:103DD000164B30B5DC68C4F30224C4F10703251D7B
:103DE000042B28BF0423062D4FF0FF358CBF033C66
:103DF000002405FA03F321EA0303A54022EA0502A1
:103E0000A340002843EA0203ACBF00F16040084A27
:103E10004FEA0313B8BF00F00F00DBB2AABF00F5F2
:103E20006140135480F8003330BD00BF00ED00E066
:103E300014ED00E0002807DB044A4109012300F0EB
:103E40001F00834042F82130704700BF00E100E0CE
:103E500000280CDB4309064900F01F002033012233
:103E6000824041F82320BFF34F8FBFF36F8F70471D
:103E700000E100E010B5044650B1437903F0FF02C1
:103E800013B90271FDF7B4FF01236371002010BD67
:103E90000120FCE7036810B5084C0246D9B210397E
:103EA0001820B1FBF0F0205CD06523F47F7020F087
:103EB00003005F2988BF0430906510BD6F4C020875
:103EC00070B50446FFF758FF0546002C60D002236A
:103ED00084F835302268002384F83430136823F0E6
:103EE0000103136022681368D8072ED41368324880
:103EF000A1691840D4E901352B43E5682B432569B6
:103F00002B4365692B43E5690B432B43256A2B4300
:103F10000343606A042802BFD4E90B5635432B43A0
:103F200013605369042823F0070343EA000335D1E3
:103F3000A06AE56A03438DB391B9012820D030F01F
:103F400002012BD1E90129D51DE0FFF715FF401B28
:103F50000528C7D920230320636584F8350070BD88
:103F6000B1F5005F16D1032818D801A151F820F04F
:103F7000873F0008453F0008873F0008813F000851
:103F8000B5F1C07F0AD140236365012384F8353041
:103F90000120E4E70228F6D90328D3D05361204654
:103FA000FFF778FFE26D3F239340836000200123F9
:103FB000606584F83530D2E73F8010F038B50546AB
:103FC00020B390F83530022BDCB21DD003681A689C
:103FD00022F0010200241A6021221C605C609C60B7
:103FE000DC601C615A61FFF755FFEA6D3F23934087
:103FF000C5E90F44C5E91144C5E9134483606C6504
:1040000085F8344085F83540204638BD0124FBE76B
:1040100070B50446866DFFF7AFFE94F83530022B7D
:10402000054606D0802363650120002384F83430E0
:1040300070BD23681A6822F016021A605A6922F0CD
:1040400080025A61226C0AB9A26C1AB11A6822F075
:1040500008021A601A6822F001021A6023681868C0
:1040600010F0010007D1E26D3F239340B3600123BC
:1040700084F83530D9E7FFF77FFE401B0528EDD9DE
:1040800020230320636584F83500CEE710B504468D
:1040900030B390F8393003F0FF021BB980F83820B4
:1040A000FDF7BEFE22686168022384F83930136888
:1040B00023F440330B431360536BA16823F00703D1
:1040C0000B435363136CE16823F47F5323F03F03E6
:1040D0000B43136400200123E06384F8393010BDE2
:1040E0000120FCE770477047036870B55E681D6883
:1040F000F207044614D5E90512D51A6822F4807235
:104100001A60C26B42F00102C26301229A6004236A
:1041100080F83930002380F83830436903B198477C
:10412000B20616D5AB0414D523681A6822F40052DF
:104130001A6020229A60E36B43F00203E3630423D6
:1041400084F83930002384F8383063690BB1204695
:104150009847300716D5290514D523681A6822F424
:1041600000621A6008229A60E36B43F00403E36381
:10417000042384F83930002384F8383063690BB1A4
:104180002046984772070BD56B0509D523681A6836
:1041900022F480621A6004229A602046FFF7A2FF90
:1041A000B00714D5A90512D523681A6822F4007245
:1041B0001A6002229A60E36BE363012384F83930CA
:1041C000002384F8383023690BB120469847F20663
:1041D00013D5EB0411D523681A6822F480521A60B3
:1041E00010229A60E36BE363012384F839300023E3
:1041F00084F838302046FFF776FF70BDF0B590F8B0
:104200003820012A03464FF002002BD0012283F808
:10421000382083F8390003EB0112D2E90740556AD0
:10422000174F44EA0040093C012C9CBF05F07F4237
:1042300010434FEA01161A6888BF40EA056091B939
:10424000516A394001435162012C9969916103D847
:10425000596A21F07F4191620122002083F83920C0
:1042600083F83800F0BDD16939400143D161991913
:10427000012C896911619CBF25F07F451562EBE730
:10428000F0FFFC002DE9F04107460D4614461E469E
:10429000FFF772FD80463B685A6FD2070AD5069A2F
:1042A00044EA062444EA024444EA8514DC66002019
:1042B000BDE8F081FFF760FDA0EB0800B0F57A7F64
:1042C000E9D90320F4E7037C012B02465ED00368A2
:1042D0000020C3F8C400C3F8C800C80748BFD3F81B
:1042E000C400916142BF6FEA10406FEA0040C3F81A
:1042F000C400880742BFD3F8C40040F4F810C3F8E4
:10430000C400480742BFD3F8C80040F00100C3F81A
:10431000C800080742BFD3F8C80040F00200C3F845
:10432000C800C80642BFD3F8C80040F00C00C3F86C
:10433000C800880642BFD3F8C80040F01000C3F898
:10434000C800480642BFD3F8C80040F02000C3F8B8
:10435000C800080642BFD3F8C80040F04000C3F8C8
:10436000C800C80542BFD3F8C80040F08000C3F8B9
:10437000C800890548BFD3F8C8104FF0000044BFFB
:1043800041F4F851C3F8C810107470470220704708
:1043900073B50D460446002800F0A980437C0BB994
:1043A000FDF760FD03236374002300932368D3F8B3
:1043B000302442F08072C3F83024D3F8303403F054
:1043C00080730093009BFFF7D7FC06462268D2F863
:1043D0000C34D9047AD5D2F8303423F45E3323F484
:1043E000FE73C2F83034D5E90003DB0243EA8003F0
:1043F000A868D2F8301443EA00430B43C2F83034C3
:1044000000230193D2F8303443F00103C2F8303472
:10441000D2F8303403F0010301930120019BFFF730
:10442000B1FCFFF7A9FC06462368D3F80C24D2059B
:1044300056D5D3F8A020616842F00602C3F8A02048
:10444000D3F8942022F00302C3F89420D3F89420E8
:104450000A4342F00102C3F89420D3F8A420E16893
:1044600022F00302C3F8A420D3F8A4200A43C3F81F
:10447000A4209A68A16822F0FF029A609A680A4311
:104480009A606A681B49012A38BF01224A43A96819
:1044900001F003018A4029684FF4FA504143B2FB0E
:1044A000F1F2D3F8181421F03F01C3F81814D3F82F
:1044B000181400200A43C3F81824C3F8C400C3F832
:1044C000C80001236061A061637407E0FFF754FC3A
:1044D000801BB0F57A7F7FF679AF032002B070BD04
:1044E000FFF74AFC801BB0F57A7F9DD9F5E70120E4
:1044F000F4E700BF00093D0070470368D3F80C24BF
:10450000D10710B5044608D5D3F80824D20704D53E
:104510000122C3F81024FCF775FB2368D3F80C24A0
:10452000910709D5D3F80824920705D50222C3F8CC
:1045300010242046FCF79AFBA369002B4ED021687B
:10454000D1F8BC20D1F8C4301A40D1F8C030D1F82D
:10455000C8100B4091B219B1616941F0010161616C
:1045600012F4F81F1EBF626942F002026261D807AE
:1045700042BF626942F004026261990742BF626908
:1045800042F00802626113F00C0F1EBF626942F034
:1045900010026261DA0642BF626942F02002626183
:1045A000980642BF626942F040026261590642BF0A
:1045B000626942F0800262611A0642BF626942F497
:1045C0008072626113F4F85F1EBF636943F4007385
:1045D0006361636913B12046FFF78EFF10BD027C53
:1045E000012A03460AD00268106B20F00300106312
:1045F000106B01430020116318747047022070474C
:1046000030B5037C012B044669D0036808685A6BF7
:1046100042F001025A63D3F8002422F00102C3F8E9
:104620000024D3F8002442F00102C3F80024DA6821
:1046300022F00302DA60DA680243DA605A6922F093
:1046400007025A61D1E906522A434D6958692A4343
:1046500002435A611A69486822F00F021A611A6906
:1046600002431A61D3F8002422F00E02C3F800249A
:10467000D3F8002442EA4002C3F800245A6E886846
:10468000120C12045A665A6E02435A66D3F800247A
:1046900022F0F002C3F80024D1E903252A434D6A31
:1046A000D3F800042A430D6A896A2A430243C3F8F7
:1046B00000249A6E22F001029A669A6E0A439A6664
:1046C000D3F8082442F00102C3F80824D3F80824E0
:1046D000002042F00202C3F80824207430BD0220FA
:1046E000FCE7000030B5037C012B024629D00068AE
:1046F000154B846E23408366D1E900352B438D68CA
:10470000846E2B43CD682B430D692B434D692B439E
:104710008D692B43CD692B430D6A2B434D6A2B4387
:104720008D6A2B43CD6A096B2B4323438366836ECB
:1047300023F002038366836E0B43836600201074AC
:1047400030BD0220FCE700BFFF80F0FE027C012AA2
:1047500003460AD00268D06A20F01F00D062D06AF7
:1047600001430020D162187470470220704730B5B1
:10477000037C012B044634D0D1E90003984238BFB2
:1047800018462368D3F8982002F0FC22C3F898203A
:10479000D3F8982042EA00420243C3F89820D3F8A5
:1047A0009C2002F40042C3F89C20D1E902251206A5
:1047B00042EA05420D69D3F89C0049692A43024345
:1047C000C3F89C20D3F8A42022F47F42C3F8A4208D
:1047D000D3F8A420002042EA0122C3F8A4202074C8
:1047E00030BD0220FCE7000030B5037C012B0446FD
:1047F0005BD0036808689A688D6822F47F429A60EB
:104800009A6842EA00229A609A6F486892B29A6760
:104810009A6F42EA00429A67986F254A104098675B
:10482000986F28439867D86FCD681040D867D86FC5
:104830002843D867D3F880000D691040C3F8800082
:10484000D3F880002843C3F88000D3F884004D6972
:104850001040C3F88400D3F884002843C3F88400D0
:10486000D3F8840020F08070C3F88400D3F884006B
:104870008D692843C3F88400D3F88800CD69096A9C
:104880001040C3F88800D3F888002843C3F8880094
:10489000D3F88C000240C3F88C20D3F88C20002081
:1048A0000A43C3F88C20207430BD0220FCE700BF0F
:1048B0000000FFFF037C012B82B01CD002680023A4
:1048C0000093516841F001015160516801F001010C
:1048D000009100990193D2F8041441F00801C2F844
:1048E0000414D2F80424037402F008020192019A1D
:1048F000184602B070470220FBE7027C012A1CBF69
:104900000168D1F8042403461FBF42F004020020CE
:10491000C1F80424187408BF0220704737B5057C1D
:10492000012D044609D001250574069D0095FFF769
:10493000A9FC0023237403B030BD0220FBE72DE95E
:10494000F84F1C46037C012BDDE90A9806460F460A
:10495000154652D001230374FFF70EFA83463268DE
:10496000536F13F0010A19D0032C20464FF00003B7
:1049700028BF032083421DD1E01AC2F8709043443F
:1049800010BB0134230245EA87159BB224021D4364
:1049900004F47F042543D566307409E0FFF7ECF991
:1049A000A0EB0B00B0F57A7FD9D986F810A00320D0
:1049B000BDE8F88F18F8031001334FEAC30C01FA71
:1049C0000CF149EA0109D5E704284FF0000C8646AE
:1049D000614628BF4FF0040E13F801804FEAC10969
:1049E000013108FA09F88E454CEA080CF4D1C2F8F6
:1049F00070C0A0EB0E007344C2E70220D8E7027C2F
:104A0000012A03460FD00268D2F81C0420F0C060CF
:104A1000C2F81C04D2F81C0440EA41610020C2F82C
:104A20001C14187470470220704700002DE9F74FDE
:104A3000DFF8BC916C4A00230D6801249C4004EA15
:104A40000506AC4340F0B7804D68032705F003042A
:104A50004FEA430807FA08FC671E012F6FEA0C0CA7
:104A600034D8876807EA0C0ECF6807FA08F747EAD8
:104A70000E078760476827EA060EC5F300179F40B8
:104A800047EA0E074760C76807EA0C0E8F6807FA07
:104A900008F747EA0E07022CC76019D14FEAD30A7C
:104AA00000EB8A0A03F0070BDAF820704FEA8B0B51
:104AB0004FF00F0E0EFA0BFE27EA0E0E0F6907FAE3
:104AC0000BF747EA0E07CAF8207001E0032CDAD191
:104AD000076804FA08F407EA0C073C4315F4403F62
:104AE000046068D000240194D9F8444044F4804420
:104AF000C9F84440D9F8444023F0030707F1804740
:104B000004F4804407F59C37019403F0030C019CE6
:104B1000D7F808E04FEA8C0C0F2404FA0CF42EEAC4
:104B2000040E324CA0424DD004F58064A0424BD01C
:104B300004F58064A04249D004F58064A04247D0C7
:104B400004F58064A04245D004F58064A04243D0BF
:104B500004F58064A04241D004F58064A0423FD0B7
:104B600004F58064A0423DD004F58064A04214BFE7
:104B70000A24092404FA0CF444EA0E04BC60946884
:104B8000F74315F4801F0CBF3C4034439460D46855
:104B900015F4001F0CBF3C403443D460546815F436
:104BA000003F0CBF3C40344354601468ED0354BFD5
:104BB0003C40344314600133102B7FF43DAF03B00D
:104BC000BDE8F08F0024D5E70124D3E70224D1E724
:104BD0000324CFE70424CDE70524CBE70624C9E767
:104BE0000724C7E70824C5E7003C01400000024055
:104BF000003802402DE9F04F494C00224FF0010AE5
:104C00004FF00F084FF0030B0AFA02FC3CEA0103D5
:104C10000CEA01066CD122F0030505F1804505F58B
:104C20009C3502F00307AB68BF0008FA07F909EAF0
:104C3000030E3C4B984260D003F5806398425ED0EF
:104C400003F5806398425CD003F5806398425AD0A4
:104C500003F58063984258D003F58063984256D09C
:104C600003F58063984254D003F58063984252D094
:104C700003F58063984250D003F5806398420CBFDF
:104C800009230A23BB40734513D1236823EA060393
:104C90002360636823EA06036360E36823EA06038C
:104CA000E360A36823EA0603A360AB6823EA090371
:104CB000AB60056853000BFA03F3D60825EA030539
:104CC00000EB8606056002F00705376AAD0008FABA
:104CD00005F527EA05073762C56825EA0305C560BB
:104CE000456825EA0C054560856825EA030383606D
:104CF0000132102A88D1BDE8F08F0023C2E70123DA
:104D0000C0E70223BEE70323BCE70423BAE7052379
:104D1000B8E70623B6E70723B4E70823B2E700BFE6
:104D2000003C0140000002400369194214BF012009
:104D3000002070470AB1816170470904FBE74369AD
:104D400001EA030221EA030141EA0241816170475D
:104D500001684B6913F480634FF0000210D06FF4C8
:104D600080634B612023026380F83D3080F83E2051
:104D7000036C80F83C2043F0040303640120704777
:104D8000184670472DE9F84606460F4691461D46DF
:104D90004FEA114A3368BAF1010F0CBF5C699C6994
:104DA00027EA0404A4B2B4FA84F46409A14501D04A
:104DB000002025E06A1CEED0FEF7DEFF089BC01A3B
:104DC000A84201D8002DE5D13368BAF1010F0CBF1C
:104DD0005B699B6927EA03039BB2B3FA83F35B0920
:104DE0009945D7D100232022336386F83D2086F8E9
:104DF0003E30326C86F83C3042F0200232640120B2
:104E0000BDE8F8862DE9F04104460F46164698465F
:104E10002568686927EA000080B2C0B16B695A054D
:104E200017D52B6843F400732B606FF480636B61BC
:104E300020220023236384F83D2084F83E30236C35
:104E400043F004032364002384F83C300120BDE8D0
:104E5000F081731CDDD0FEF78FFFA0EB0800B0429D
:104E600001D8002ED4D123685A6927EA020292B2EF
:104E7000002ACDD000232022236384F83D2084F82B
:104E80003E30236C1343DDE770B504460D461646ED
:104E900023685B691B0601D500201EE02046FFF752
:104EA00057FFC8B96A1CF3D0FEF766FF801BA84203
:104EB00001D8002DECD123685B6913F08003E7D1A2
:104EC0002022236384F83D2084F83E30226C84F84D
:104ED0003C3042F020022264012070BD2DE9F043F5
:104EE0001546026885B0DDE90C789946136843F4ED
:104EF000807313600E463B46CDF8008000224FF0D1
:104F000001110446FFF73EFF236838B11B68DB053B
:104F100002D54FF400732364032620E006F0FE065A
:104F20001E611A4943463A462046FFF76BFFA8B96F
:104F3000236803905A6903929B690393424639465A
:104F40002046039BFFF7A0FF064660B1236C042BAD
:104F500001BF2268136843F40073136001263046D2
:104F600005B0BDE8F083B9F1010F236802D1EDB2BD
:104F70001D61F4E72A0A1A61394642462046FFF7C6
:104F800083FF0028E2D12368F1E700BF020001009F
:104F90002DE9FF479A46036815461A6842F4806275
:104FA0001A601A68DDE90C7842F480721A600E46C5
:104FB0003B46CDF8008000224FF001110446FFF778
:104FC000E1FE236838B11B68DB0544BF4FF4007372
:104FD0002364032021E05FFA86F906F0FE061E61D5
:104FE0002B4943463A462046FFF70CFFA0B92368F9
:104FF00003905A6903929B690393424639462046BF
:10500000039BFFF741FF58B1236C042B01BF2268BB
:10501000136843F400731360012004B0BDE8F08707
:10502000BAF1010F23681AD1EDB242461D6139462B
:105030002046FFF729FF02460028E5D121680B68CA
:1050400043F480730B602046CDF800803B464FF060
:105050000111FFF797FE226860B11368B4E72A0ACE
:105060001A61394642462046FFF70EFF0028CBD191
:105070002368D9E749F001031361054943463A46DD
:105080002046FFF7BFFE003818BF0120C5E700BF6C
:105090000200010070B504460D46164623685B69A0
:1050A0005B0701D500201EE02046FFF751FEC8B97E
:1050B0006A1CF3D0FEF760FE801BA84201D8002DC9
:1050C000ECD123685B6913F00403E7D1202223634A
:1050D00084F83D2084F83E30226C84F83C3042F065
:1050E00020022264012070BD70B504460D461646AC
:1050F00021684B6913F0400301D0002011E04A6998
:10510000D2060FD56FF010024A612022236384F883
:105110003D2084F83E30236C2364002384F83C3027
:10512000012070BDFEF728FE801BA84201D8002D8B
:10513000DED123685B6913F04003D9D120222363B9
:1051400084F83D2084F83E30236C1343E4E70000EC
:1051500070B5044608B9012070BD90F83D3003F0E9
:10516000FF021BB980F83C20FCF7B8FE242384F82A
:105170003D3023681A6822F001021A601A6842F46E
:1051800000421A601A6822F400421A6001F026F800
:105190003F4B65689D4294BF3E4B3F4B98428CBF4E
:1051A00000230123002BD6D12268394E51683B4B96
:1051B000B0FBF3F321F03F011943B542516088BFC2
:1051C0004FF49676116A88BF734321F03F0184BF84
:1051D0004FF47A76B3FBF6F301330B431362D169D4
:1051E000431E2B4821F44F41854221F0FF0132D864
:1051F0006D0040F6FC70B3FBF5F30133034242D07F
:10520000C3F30B031943D161D4E907301168034399
:1052100021F0C0010B4313609168D4E9030321F42A
:105220000341034321F0FF010B439360D4E90530B0
:10523000D168034321F0FF010B43D360136843F0AF
:105240000103136000202023206484F83D30206394
:1052500084F83E0080E7A06850B905EB4505B3FB34
:10526000F5F30133C3F30B037BB143F40043C9E708
:1052700019206843B3FBF0F30133C3F30B0323B1ED
:1052800043F44043BEE70423BCE70123BAE700BF71
:10529000A08601007F841E00FF083D0040420F00F1
:1052A00010B5044698B10268242380F83D30136895
:1052B00023F001031360FCF755FE0020206484F8FE
:1052C0003C0084F83D00206384F83E0010BD0120BE
:1052D000FCE700002DE9F743044699460C9E0F4673
:1052E0009046FEF749FD94F83D30202B054603D04B
:1052F000022003B0BDE8F08300903C49192301224D
:105300002046FFF73FFD0028F2D194F83C30012BF6
:10531000EED02068012384F83C300368D9075EBFD3
:10532000036843F001030360036823F40063036030
:10533000212384F83D30402384F83E300023236449
:105340000A9B6362BDF82C306385638D2385284BEF
:10535000E3624246CDE900654B4639462046FFF7F9
:10536000BDFD00282AD00120C3E7FFF78DFD40B125
:10537000236C042B01BF2268136843F4007313608D
:10538000F1E7636A27681A4612F8011B3961626205
:10539000628D218D013A92B262857A69481E80B28F
:1053A000520720850AD548B15A783A6102336362C0
:1053B000638D013B02399BB221856385238D2A468B
:1053C00031462046002BD0D1FFF764FE0028CFD114
:1053D0002268136843F400731360202384F83D307F
:1053E00084F83C0084F83E0083E700BF0200100010
:1053F0000000FFFF2DE9F043044687B09946109F57
:105400000D469046FEF7B8FC94F83D30202B06463A
:1054100004D00225284607B0BDE8F08300907A4901
:10542000192301222046FFF7ADFC0028F1D194F8A2
:105430003C30012BEDD02068012384F83C30036818
:10544000DB075EBF036843F001030360036823F4D6
:1054500000630360222384F83D30402384F83E300B
:10546000002323640E9B6362BDF83C306385638D2B
:105470002385664BE3622946CDE900764B464246DA
:105480002046FFF785FD054608B10125C2E7228DBC
:105490002368B2B902905A6902929A690292029AFA
:1054A0001A6842F400721A60DFF86481238D002BC1
:1054B0002CD1202284F83D2084F83C3084F83E3002
:1054C000A8E7012A0AD11A6822F480621A600390C0
:1054D0005A6903929A690392039AE1E7022A0ED16C
:1054E0001A6822F480621A601A6842F400621A6034
:1054F00004905A6904929B690493049BD4E7059035
:105500005A6905929B690593059BCDE7032B56D8F5
:10551000012B15D1324639462046FFF7E5FD00281C
:10552000B3D123681A69636A1A70636A01336362CC
:10553000238D013B2385638D013B9BB26385B5E7DA
:10554000022B00963B464FF000024146204619D1FF
:10555000FFF718FC002898D123681A6842F40072FB
:105560001A601A69636A1A70626A531C6362238D37
:10557000013B2385638D013B9BB2638523681B69D7
:105580005370D2E7FFF7FEFB024600287FF47DAFA1
:105590002368196821F4806119601969636A1970B8
:1055A000636A01336362238D013B2385638D013B75
:1055B0009BB26385414600963B462046C8E732468B
:1055C00039462046FFF790FD00287FF45EAF236840
:1055D0001A69636A1A70628D616A013A92B24B1C51
:1055E000628522686362238D5069013B9BB240074C
:1055F00023857FF55BAF032B02BF136823F4806321
:10560000136013694B7090E7020010000000FFFF69
:105610000400010090F83D0070470068D1F800C018
:10562000D201843283182DE9F043C6685D684C6866
:10563000D1F8189005F470455D60C5680CF101075C
:10564000C5F30B45C6F30B463D44264445EA0645E3
:105650005D60C668CD68C6F30A062E449D6805F4F1
:1056600070459D60C7688D68C7F30A0701353D44E2
:1056700045EA06459D601D690E6925F007051D6117
:105680004FF0000E1E619D6991F8327091F83180E3
:10569000C3F818E091F8305045EA096545EA082555
:1056A00045EA07459D615D6925F0FF055D614D692E
:1056B0005D61DD6925F4E06525F00705DD61D1E96F
:1056C00007573D43DD619D6A4D6AC3F828E09D623E
:1056D0001EB3012E23D0B51E022D22D9072E14BFD2
:1056E00001250225DE6A06F0E026DE62A4EB0C044A
:1056F0008E6AC96A6C436E43033444EA0644DC6232
:105700001C6B24F4FF6424F007041C6319638358A2
:1057100043F001038350BDE8F0830425E2E703254D
:10572000E0E70225DEE7000038B50446002863D034
:1057300090F8A13003F0FF021BB980F8A020FCF71D
:105740002FFC022384F8A13023689A6922F070426A
:105750009A61D4E901200243E06899690243206913
:1057600002430A439A619A68244960690A409A6030
:105770009A6842EA0042A06902439A60DA68E069E6
:105780000A40DA60DA6842EA0042206A0243DA60DC
:105790001A69606A0A401A611A6942EA0042A06AFC
:1057A00002431A615A690A405A615A69E16A42EA37
:1057B0000142216B0A435A61DA6A94F8350094F881
:1057C000361002F07F42DA62DD6A94F834202A4310
:1057D00042EA002242EA0142DA625A6B42F00602D1
:1057E0005A639A6942F001029A6100200123C4F8C9
:1057F000A40084F8A13038BD0120FCE700F800F0D7
:10580000704770477047036870B59E6B5D6B720799
:10581000044614D5690712D55A6B22F004025A6364
:105820000422DA63D0F8A43043F00103C0F8A430B6
:10583000002380F8A12080F8A030FFF7E1FFB20735
:1058400016D5AB0714D523685A6B22F002025A63AF
:105850000222DA63D4F8A4301343C4F8A43004233A
:1058600084F8A130002384F8A0302046FFF7C8FF59
:10587000F00710D5E9070ED523685A6B22F0010214
:105880005A630122DA63002384F8A12084F8A0304F
:105890002046FFF7B6FF320711D52B070FD5236837
:1058A0005A6B22F008025A630822DA63012384F853
:1058B000A130002384F8A0302046FFF7A3FF70BD7D
:1058C0002DE9F04190F8A030012B06460F46944692
:1058D0004FF002001FD04FF0010886F8A08086F834
:1058E000A10034240D4604FB02640FCD38340FC4EC
:1058F0000FCD0FC40FCD0FC42B6823603046624616
:105900003946FFF78AFE33680020C3F8248086F802
:10591000A18086F8A000BDE8F081000030B590F8C5
:10592000A030012B4FF002032CD0342404FB0204DE
:1059300080F8A130A46C3CB3012C27D0A51E9D4259
:1059400002D9072C18BF01230468D20184322244F3
:105950004B43D46A24F0FF5424F4F814D4620C4C62
:10596000656A45F001056562D56A45EA0343D3627D
:10597000636A43F001036362012380F8A1300023CE
:1059800080F8A030184630BD0423DDE70323DBE7B1
:105990000068014037B500230193184B184D1A6C6D
:1059A00042F080521A641B6C03F080530193019BF8
:1059B000144B01221A64FEF7DFF904466B68DA0320
:1059C0000BD5104B0E4D01225A64FEF7D5F9044653
:1059D0006B689B030AD5002006E0FEF7CDF9001B9B
:1059E000B0F57A7FEAD9032003B030BDFEF7C4F9E1
:1059F000001BB0F57A7FEBD9F5E700BF0038024015
:105A00000070004000000E422DE9F0474E6A3EB1A2
:105A1000B2F1406F1FBF8B6A046803F1FF3323614B
:105A2000D1F818A0D1E9077EBAF1000F4CD04C692B
:105A300005680B68D1F834804FEA844C4AEA0604C2
:105A4000D1E90B0944EA020ABEF1000F24D08E68A6
:105A5000EE614AEA0E040E699FB13B43034343EAF9
:105A60000903C86843EA08033343034343EA0C03CA
:105A70002343B2F1406F6B6101D04B68AB61BDE86D
:105A8000F087034343EA090343EA0803334343EA45
:105A90000C0323436B61F2E767B13B43034343EAE3
:105AA0000903C86843EA0803034343EA0C0343EAD3
:105AB0000A03DEE7034343EA090343EA080444EA2E
:105AC0000C0343EA0A03E5E7BEF1000F29D046EADA
:105AD0000E0504684E698B68E361D1E90B8E0B6992
